:10000000B8190020C5250000B9250000BB25000057
:10001000C1250000BD250000BF250000C32500004C
:10002000C3250000C3250000C3250000C325000030
:10003000C3250000C3250000EF0A0000050C0000E6
:10004000BF1D0000C91D0000D31D0000DD1D000004
:10005000E71D0000F11D0000FB1D0000051E000053
:100060000F1E0000191E0000231E00002D1E0000A0
:10007000371E0000411E00004B1E0000551E0000F0
:100080005F1E0000691E0000731E00007D1E000040
:10009000871E0000911E00009B1E0000A51E000090
:1000A000AF1E0000B91E0000C31E0000CD1E0000E0
:1000B000D71E0000E11E0000EB1E0000F51E000030
:1000C000FF1E0000091F0000131F00001D1F00007D
:1000D000271F0000311F00003B1F0000451F0000CC
:1000E0004F1F0000591F0000631F00006D1F00001C
:1000F000771F0000811F00008B1F0000951F00006C
:100100009F1F0000A91F0000B31F0000BD1F0000BB
:10011000C71F0000D11F0000DB1F0000E51F00000B
:10012000EF1F0000F91F0000032000000D20000059
:10013000F8B505000E0014000027002C32D0002D69
:1001400002D1042020702DE0002E02D10C2020705E
:1001500028E0DFF880070078012802D31220207001
:1001600020E02878401E03280ED800F0A3FC0700EA
:10017000300000F03EFBC0B2102808D3380000F079
:100180009DFC0B2020700DE0012020700AE0310062
:1001900015F10F0000F01EFB0500380000F08EFC8A
:1001A00000202070F1BD80B500F0D4FC00F014FAFE
:1001B00000F039FA00F095FA00F0E6F900F056FD8B
:1001C00000F07EFD00F0A4FD00F04DFA00F06AFAA8
:1001D00000F0C3FD00F0C2FC00F0F4FE01BD10B55C
:1001E0000024DFF858080078012841D100F062FCB3
:1001F0000400DFF8E0060078012806D3DFF8D40613
:100200000078401EDFF8CC160870DFF8C8060078CA
:1002100000282AD1DFF8C0060078002825D100F098
:10022000C9FADFF81C080078DFF818180978884246
:100230001BD0DFF80C080078DFF80C1851F820000C
:10024000DFF808180860DFF804080068806B401CBD
:10025000DFF8F81709688863DFF8F4070068401CC6
:10026000DFF8EC17086000F03EFC200000F026FCF0
:1002700010BD80B5DFF8C4070078002819D100F060
:1002800099FADFF8C007DFF8B81709780170DFF8CE
:10029000B0070078DFF8B01751F82000DFF8AC178E
:1002A0000860DFF89407DFF8A4170968016000F020
:1002B00008FC01BD10B50024022000F037FF00F05B
:1002C000F9FB0400DFF88C0700210160200000F03A
:1002D000F5FB642000F02AFF00F0ECFB0400DFF8DF
:1002E0007807DFF8701709680160DFF870070121EF
:1002F0000170200000F0E2FB10BD38B5002400F0D2
:1003000071FC00F0D7FB0400DFF854070068401CC4
:10031000DFF84C170860200000F0D0FBDFF81C0766
:10032000007801285ED1DFF83C070078002803D070
:10033000022805D002D309E001200CE000200AE0E9
:100340000120DFF8201701220A7004E00120DFF805
:10035000141700220A70C0B2002843D0DFF8080743
:10036000056820E0002085F8310095F8300000078E
:1003700015D4DFF8F806007895F836100843DFF852
:10038000EC16087095F83400DFF8E416405C95F838
:100390003510084395F83410DFF8D42688546D6979
:1003A000200000F08BFB95F832001F281AD000F0D7
:1003B00081FB0400E88D0028F1D0E88D401EE8851F
:1003C00080B20028EBD195F8300037210842C9D01F
:1003D00095F8300010F0C80085F83000012085F84D
:1003E0003100C2E731BDF8B50400A07ADFF88456C9
:1003F000405DC0B20519ED7ADFF87866AD5DC0B238
:10040000EDB215EBC005EDB2DFF83C6656F825609D
:100410000027F785716296F83010914386F8301006
:1004200086F8313096F83010090713D4DFF83C16FF
:10043000097896F836201143DFF830261170C0B2E3
:10044000DFF82C16415C96F835201143C0B2DFF876
:10045000202681542100300000F051F8306A002835
:1004600004D0316A300000F063F8F4612800C0B2B3
:10047000F2BDDFF8C4150968C861DFF8BC1509686A
:1004800091F834100918C97ADFF8AC25126892F88F
:1004900035201143DFF8A025126892F83420121895
:1004A000D172817ADFF89025126892F836201143D4
:1004B0008172DFF88405006890F83400C0B2DFF87C
:1004C000B015415CDFF87025126892F83520914331
:1004D000C0B2DFF89C258154C0B2DFF89415405CAF
:1004E00000280BD1DFF884050078DFF84C15096887
:1004F00091F836108843DFF874150870704710B40F
:1005000090F83420D2B25318DB7A90F83540A343E8
:10051000D2B25418E372D2B25218D27A002A05D15C
:100520008A7A90F8360032EA0000887210BC704770
:1005300070B490F8342090F8363090F83540086860
:1005400010E0D2B21518ED7AA543D2B21618F572A2
:10055000D2B21518ED7A002D02D1857A9D438572AD
:10056000091D08680028ECD170BC70470021817219
:1005700000F20B00002103E000220270401C491C25
:10058000C9B20429F8D3704780B54FF4A071DFF8E1
:10059000E80400F0D8F8DFF8E014DFF8E0240020E9
:1005A00009E000230B704A603F23CB7300230B74D8
:1005B00020312032401C80B20928F2D3002008707C
:1005C000002048603F20C87300200874DFF8B004A2
:1005D000DFF8A414016001BDDFF88404002101608C
:1005E000BC4800210170BC4800210170DFF8940470
:1005F00000210170DFF8440400210170DFF850048D
:1006000000210160DFF84C0400210160DFF878046C
:1006100000210160DFF8400400210160DFF83C04A4
:10062000002101707047DFF8440400210170DFF8F9
:100630004014002003E000220A70491C401CC0B294
:100640000428F8D3DFF8FC0300210170DFF8F00381
:1006500000210170DFF8F40300210160DFF8D80306
:1006600000210160704710B586B00320049000207F
:10067000039080200290DFF8140401904FF6FF7081
:1006800000901F23DFF8082400210FF27D1000F0F6
:10069000D7FD040005AADFF8FC131F2000F038FE88
:1006A00006B010BD10B586B0032004900020039062
:1006B00080200290DFF8E00301904FF6FE7000907A
:1006C0001E23DFF8D82300210FF2591000F0B8FDE7
:1006D000040005AADFF8C8131E2000F019FE06B0BA
:1006E00010BD80B54FF4CF61DFF8B80300F02BF8F0
:1006F0008021DFF8540300F026F8DFF8A813DFF8B4
:10070000A82300200BE04A613F2381F84C300023EE
:1007100081F84D3001F25C0102F25C02401CC0B273
:100720001128F0D3002048613F2081F84C000020C0
:1007300081F84D00CC4800210160DFF87003DFF83C
:100740006413016001BD03E000220270401C491ED9
:1007500089B20129F8D2704710B5002400F0AAF937
:1007600004005C480078002820D15B48007800280D
:100770001CD100F01FF8B2480078B24909788842CD
:1007800014D0AF480078B04951F82000AF49086054
:10079000AE480068806B401CAC4909688863AC486F
:1007A0000068401CAA49086000F099F9200000F098
:1007B00085F910BDAD480078AE49405CC0B201007B
:1007C000C9B2AB4A895CAB4A895C11EBC0009C4959
:1007D00008707047002204E00B780370491C401C2D
:1007E000521C0B78002BF7D1002101701000C0B211
:1007F0007047002101E0401C491C0278002AFAD110
:100800000800C0B27047000080B5002000F052F927
:1008100090490968491C8F4A116000F04FF900F0B7
:100820009FF9F3E780B5002002E0C82000F07EFCCD
:100830008A4800780028F8D0874800686421B0FB17
:10084000F1F08549086084480068002805D198487F
:1008500000210170FF2000F0F4FD00F02BF98A491F
:100860007C4A12680A607B4900220A6000F026F97F
:100870008548006878490968B0FBF1F0D0F1640060
:100880008B49087000F06DF900F004F8642000F066
:100890004DFCE2E71CB5002417E000A92000C0B21F
:1008A00000F088FDC0B200280ED1E4B2664850F8CE
:1008B0002400002808D0012806D0C168826812EB05
:1008C0008101416401998164641CE4B2202CE4D369
:1008D00013BD0000AC150020AD1500202DE9F24F2E
:1008E000050016001F00DDF82880DDF82C900C9C18
:1008F0005FF0000A00F0DEF882466C48D0F800B0E5
:10090000BBF1000F00F09280DBF81400674908602B
:10091000504600F0D3F80098CBF800008BF8325026
:1009200000208BF8300000208BF831000020ABF85D
:100930002E00CBF80490CBF80C80CBF80860ABF815
:100940001040ABF8127000208BF83700EDB2E808C9
:100950008BF8340015F007008BF8330001209BF969
:10096000341088408BF8360001209BF93310884002
:100970008BF835000020CBF81C000020CBF82000BD
:100980000020CBF828000020CBF824000020CBF872
:1009900038000020CBF840000020CBF83C000020BD
:1009A000CBF844000020CBF848003F208BF84C00E7
:1009B00000208BF84D00584600F013F9584600F01F
:1009C000CEF800F077F88246EDB21F4840F825B027
:1009D00025480068CBF814000020CBF81800224806
:1009E0000068002803D020480068C0F818B01E48EE
:1009F000C0F800B01D4800789BF8361008431B492A
:100A000008709BF834001A49405C9BF83510084385
:100A10009BF83410164A88541A480078401C19492B
:100A20000870504600F04AF8002003E0504600F0FD
:100A300045F84220BDE8F28F78150020B11500205E
:100A4000AF150020AE1500202814002080150020CE
:100A50005C1500207415002068150020AB150020DF
:100A600090150020B315002084150020B01500203B
:100A70007015002018220000B80F0020D80F0020A9
:100A800060150020B21500206C150020B80B002066
:100A9000B40D002060250000B8090020B40B002030
:100AA00070250000000000205C0000207C15002064
:100AB000AA150020EFF3108072B6704780F31088FB
:100AC00070471B48FF210170002080F309881948F6
:100AD0000121017018481949016062B6FEE7164805
:100AE000164901607047144814490160704772B696
:100AF000EFF3098028B1203880E8F00F1049096829
:100B0000086000B50F4880475DF804EB0E480F49B8
:100B10000A7802700A480E490A680260106890E874
:100B2000F00F203080F309884EF0040E62B6704753
:100B300022ED00E0B115002004ED00E000000010FF
:100B400078150020E10B0000AE150020AF15002045
:100B50008015002040480021018070477047704791
:100B600070477047030010005FF080720260001F42
:100B70000360001F7FF001020260001F5FF012326D
:100B80000260001F5FF003320260001F5FF002325C
:100B90000260001F5FF001320260001F0160001F51
:100BA0005FF011310160001F5FF010310160001F24
:100BB0005FF009310160001F5FF008310160001F24
:100BC0005FF007310160001F5FF006310160001F18
:100BD0005FF005310160001F5FF004310160704774
:100BE0007047704780B51C480088401C1A4908802F
:100BF00019480088642804D317480021018000F0B8
:100C0000A5F801BD80B5FFF755FF14490978491CC7
:100C1000124A1170FFF752FFFFF76FFBFFF7DFFA81
:100C200001BD80B500F091FC4FF47A71B0FBF1F09A
:100C3000401E0B4908600B48FF2101700A480068FC
:100C400050F00500084908600748006850F00200AD
:100C50000549086001BD0000A8150020AC15002062
:100C600014E000E023ED00E010E000E080B58C210E
:100C70001148FFF768FD1049104A00200BE00023DF
:100C80000B704A603F238B720023CB7201F21C0170
:100C900002F21C02401C80B20428F0D3002008702D
:100CA000002048603F2088720020C8720148024935
:100CB000016001BD641500209C130020B8130020C2
:100CC00080B5B4211148FFF73EFD104800210EE029
:100CD00089B224220D4B02FB013202F2240242604F
:100CE0003F2202750022427500F22400491C89B29D
:100CF0000429EDD3002141603F2101750021417598
:100D000001480249016001BD88150020E812002059
:100D100080B560210B48FFF716FD0A490A4A0020FA
:100D200003E00A6018311832401C80B20328F8D35F
:100D30000020086002480349016001BD0000000076
:100D40008C150020A8140020C014002080B5904805
:100D5000006800F061FDC0B202BD80B54FF4507173
:100D60008F48FFF7F0FC40218E48FFF7ECFC8C49E0
:100D70008D4A002010E064230B70002381F831308D
:100D8000CA603F2381F82030002381F8213001F22E
:100D9000340102F23402401C80B20F28EBD36420ED
:100DA0000870002081F831000020C8603F2081F8E1
:100DB0002000002081F8210074480021016076485D
:100DC000002101807548102101807248744901603A
:100DD000012000F077FC75490860002000F072FCEB
:100DE0006B49086000AA724970480068FFF7A0F9D3
:100DF00000AA704966480068FFF79AF900F001F808
:100E000001BD10B586B0032004900020039080201F
:100E10000290694801904FF6FD7000901D23674ACB
:100E200000210FF2ED0000F00BFA040005AA64495E
:100E30001D2000F06DFA06B010BD032280F83120AD
:100E4000C9B2012905D1C169504A126851184161DE
:100E50000DE08169002905D1C1694C4A1268511819
:100E6000416104E08169494A12685118416142694F
:100E70000823B2FBF3F101FB132189B2494A12EBBB
:100E8000C1021168002905D110600021C160012153
:100E9000918006E011681060C16008619188491C6A
:100EA000918000210161704742690823B2FBF3F190
:100EB00001FB132189B23B4A12EBC103196881423D
:100EC00006D1C1681960002908D000220A6105E036
:100ED0000169C268CA60002A00D01161012180F84E
:100EE00031100021C160002101619888401E988066
:100EF000704780B500AA00212C48006800F00AFC69
:100F000001BD80B52948006800F086FC01BD0000E5
:100F100038B501E0FFF7F5FF00AA00211C48006882
:100F200000F0F8FBFFF7E5FF18480068401C174980
:100F30000860164801680822B1FBF2F000FB1210AD
:100F400080B2184911EBC000046803E0022084F865
:100F500031002C00002CDDD0E5680C480068616988
:100F60008842F6D162681000002802D0A1682000F3
:100F700090472000FFF798FF94F830000228E5D151
:100F800001212000FFF759FFE3E70000941500203E
:100F90009C150020A0150020A6150020A4150020F7
:100FA0007806002008150020AC06002098150020C7
:100FB000A0250000AC250000B80D0020B40F0020D3
:100FC000802500002C482D4908002D4908002D4996
:100FD00008002D4908002D4908002D4908002D4919
:100FE00008002D4908002D4908002D4908002D4909
:100FF00008002D4908002D4908002D4908002D49F9
:1010000008002D4908002D4908002D4908002D49E8
:1010100008002D4908002D4908002D4908002D49D8
:1010200008002D4908002D4908002D4908002D49C8
:1010300008002D4908002D4908002D4908002D49B8
:1010400008002D4908002D4908002D4908002D49A8
:1010500008002D4908002D4908002D4908002D4998
:1010600008002D4908002D4908002D4908002D4988
:1010700008002D49080070473E250000D8250000D3
:101080004A250000E0250000E2250000E4250000DC
:10109000E6250000E8250000EA250000EC25000018
:1010A000EE250000F0250000F2250000F4250000E8
:1010B000F6250000F8250000FA250000FC250000B8
:1010C000FE25000000260000022600000426000085
:1010D00006260000082600000A2600000C26000054
:1010E0000E26000010260000122600001426000024
:1010F00016260000182600001A2600001C260000F4
:101100001E260000202600002226000024260000C3
:1011100026260000282600002A2600002C26000093
:101120002E260000302600003226000010B50400F4
:1011300000203F490978012928D2A4B2012C25D3E7
:10114000FFF7B8FC3B49096891F83410C9B23A4A34
:101150008A5C384B1B6893F835309A43C9B2364BDA
:10116000CA54C9B2344A895C002908D13349097884
:10117000304A126892F836209143304A11702D4956
:101180000968CC85FFF79AFCFFF7E6FA10BD38B581
:10119000274C2478012C01D3552048E0C0B2002808
:1011A0000AD1C9B2002907D1D2B2002A04D19BB218
:1011B000002B01D154203AE0C9B23C2901D351207F
:1011C00035E0D2B23C2A01D3522030E04FF47A7499
:1011D0009BB2A34201D3532029E0C0B24FF4616413
:1011E000C9B23C25694304FB0010D2B210184FF479
:1011F0007A719BB24FF47A7202FB03F24FF47A7366
:10120000B2FBF3F201FB0020040C80B280B2FFF7C6
:101210008DFF08E04FF40040FFF788FF4FF40040D7
:10122000FFF784FF641EA4B2012CF3D2002032BD6C
:10123000AC1500207815002070150020B015002096
:101240002DE9F14F84B00F0090461E000E9CDDF892
:101250003C90DDF840A0DDF844B0129D0020F6B2CD
:10126000202E01D32A2050E0FFF724FCDFF89C1247
:101270000978012903D3FFF721FC3C2045E0F6B2B1
:10128000DFF8741251F8261000293BD1F6B2DFF8CE
:101290006812012241F82620FFF710FC2A0092B2C2
:1012A0005146484600F034F92B009BB242463900C3
:1012B0000498FFF757FC0100ADB20295CDF804B0D9
:1012C000CDF800A023009BB24A463000C0B2FFF721
:1012D00005FB0400E4B2002C07D1DFF82C020078F3
:1012E00001280CD1FFF738FA09E0FFF7E3FBF6B26B
:1012F000DFF80412002241F82620FFF7DFFB200070
:10130000C0B202E0FFF7DAFB282005B0BDE8F08F9D
:10131000F8B507000D0014000026002C49D0FFB2DC
:10132000202F05D3FFB2FF2F02D02A20207040E0EB
:10133000002D02D10C2020703BE074480078012879
:1013400002D31220207034E0FFF7B4FB0600FFB296
:10135000FF2F03D16948006890F83270FFB26648E9
:1013600050F82770002F05D13000FFF7A7FB43206E
:1013700020701EE0012F05D13000FFF79FFB4320B6
:10138000207016E02800FFF734FAC0B2102805D309
:101390003000FFF793FB412020700AE0290017F18D
:1013A0004C00FFF717FA05003000FFF787FB00201D
:1013B0002070F1BDF8B505000C000020EDB2202D25
:1013C00004D3EDB2FF2D01D02A2039E0002C01D149
:1013D000092035E00020206000206060FFF76AFBF4
:1013E000EDB2FF2D03D14549096891F83250EDB2B5
:1013F000414951F82510002903D1FFF75FFB432035
:101400001EE0012903D1FFF759FB432018E00A7CB5
:10141000D20703D4FFF752FB452011E00026CF6826
:101420008D68FFF74BFB00E0761C2800051D006867
:101430000028F9D0B0002060B81B80006060002058
:10144000F2BD38B505000020EDB21F2D01D14720B7
:1014500051E0EDB21F2D04D3EDB2FF2D01D02A20B3
:1014600049E0FFF727FBEDB2FF2D05D123490968BD
:1014700091F83250012409E02049096891F83210AE
:10148000EDB28D4201D1012400E00024EDB21A49F1
:1014900051F82510002903D1FFF710FB48202AE05E
:1014A000012903D1FFF70AFB432024E091F83420FF
:1014B000D2B2134BD35C91F83550AB43D2B2104D3E
:1014C0005355D2B20E4BD25C002A06D10D4A127887
:1014D00091F836309A430B4B1A7091F8302052F045
:1014E000080281F83020FFF7E9FAE4B2012C01D1BB
:1014F000FFF732F9002032BD2814002078150020B3
:1015000070150020B0150020B1150020AC1500208A
:10151000D30708D5920704D405E0491E00220260D3
:10152000001D0029F9D1704780B500F03BF800F0AC
:1015300010F800F074F800F091F801BD80B55D4836
:1015400000F04FFA5B48406802BD80B5FFF7F6FF38
:1015500002BD80B5B020ADF8000010208DF803006A
:1015600003208DF8020000A9534800F0F9FA012089
:10157000ADF8000010208DF8030003208DF8020064
:1015800000A94D4800F0ECFA4020ADF8000004201E
:101590008DF8030003208DF8020000A9464800F0F2
:1015A000DFFA01BD80B500F069F95FF4803000F02A
:1015B00094F900F0BCF9C0B201282FD1102000F03E
:1015C00071FB022000F062FB002000F0EBF900202C
:1015D00000F0FCF94FF4806000F0EEF900215FF4B8
:1015E000803000F0C1F9012000F0C9F9392000F085
:1015F00078FA0028FAD0022000F0C5F900F0CDF901
:101600000828FBD10121012000F04BFA0121042020
:1016100000F047FA0121012000F053FA01BD00B5A6
:1016200083B00621002000F007FB4020009000203E
:101630008DF8040008208DF8050001208DF80600C3
:1016400000A800F03DFB172000F091FB1B4917207C
:1016500000F0A8FB172000F09DFB07BDE0B5C720F8
:10166000ADF8040041F63F70ADF800000020ADF881
:1016700006000020ADF8020000A95FF0804000F0F5
:10168000E5FC00215FF0804000F000FD0122012117
:101690005FF0804000F008FD01215FF0804000F025
:1016A0001BFD07491C2000F07DFB1C2000F072FB95
:1016B00007BD0000481500200008014083230000FA
:1016C000B523000038B5040000204F4909780129EE
:1016D00001D300201DE0FFF7EDF94C490D684B499F
:1016E0000968002904D0494909684968474A1160D6
:1016F000FFF7E4F9002D0BD0032028702C81002087
:1017000068603F20E873002028742800FEF72EFF51
:10171000280032BDF8B505000E0014000027002C8B
:101720006FD0002D02D1042020706AE028780328B1
:1017300002D00120207064E033480078012802D3F1
:10174000022020705DE032480078012802D30D208D
:10175000207056E0FFF7AEF907002889012808D36A
:101760002889401E28813800FFF7A8F90020207042
:1017700047E02848006890F8300050F00100254903
:10178000096881F8300023480068002180F8311092
:1017900020480068C6852800FEF76BFE3800FFF77A
:1017A0008DF9FEF7D9FFFFF785F9070019480068A2
:1017B00090F83100002802D0022803D005E0002074
:1017C000207009E00E20207006E029001148006812
:1017D000FEF795FE0A2020700E480068002180F870
:1017E00030100C480068002180F83110094800686A
:1017F0000021C16107480068002101623800FFF73D
:101800005DF9F1BD00000000AC150020601500205E
:10181000AD1500207815002038B504000025002CF7
:1018200001D1042029E02078032801D0012024E000
:10183000FFF740F90500A07A00280DD0002301220F
:1018400000212000FEF7CFFD04002800FFF736F945
:10185000FEF782FF002010E020894FF6FF718842DA
:1018600007D02089401C20812800FFF727F900209D
:1018700003E02800FFF722F9322032BDDFF8A8028A
:10188000006850F00100DFF8A0120860DFF89C0249
:101890000068DFF89C120840DFF890120860DFF85B
:1018A00088020068DFF88C120840DFF87C120860BC
:1018B000DFF87402006830F48020DFF86C120860F2
:1018C000DFF86802006830F4FE00DFF8601208609C
:1018D000DFF86402002101607047DFF84C120968EC
:1018E00031F48031DFF840221160DFF83C120968E2
:1018F00031F48021DFF830221160B0F5803F03D051
:10190000B0F5802F09D011E0DFF81C02006850F418
:101910008030DFF81412086008E0DFF80C0200687D
:1019200050F4A020DFF800120860FFE7704780B590
:101930000020009000200021312000F0D2F80100AA
:101940000098401C0090C9B2002903D10098B0F55E
:10195000A06FF1D1312000F0C4F8002801D001209F
:1019600000E00020C0B202BD0022704B1B681A00CC
:1019700032F47C12084302436C48026070476F499E
:10198000C0B2086070470021684A126811008908D7
:10199000890001436548016070476448006810F0A1
:1019A0000C0070470021614A1268110031F0F0010B
:1019B00001435E480160704700215C4A12681100D3
:1019C00031F4E06101435948016070470021574AF2
:1019D0001268110031F4605151EAC00153480160AE
:1019E000704730B400220021002300244F4D2D68A1
:1019F00015F00C052A00002A04D0042A05D0082A74
:101A000006D021E04F49016020E04E4901601DE011
:101A10004649096811F47011890C891C434A1268FF
:101A200012F48033002B03D1474A514301600AE08E
:101A30003E4A1268920303D5434A5143016002E0D3
:101A4000404A5143016001E03E490160374909685D
:101A500011F0F00212093D49545C0168E140416017
:101A60003249096811F4E062120A3849545C41684D
:101A7000E14081602D49096811F46052D20A33496E
:101A8000545C4168E140C1602849096811F4404252
:101A9000920B2F49545CC168B1FBF4F1016130BC79
:101AA0007047C9B2002905D02A4909680843294965
:101AB000086005E02749096831EA00002549086007
:101AC0007047C9B2002905D0234909680843224953
:101AD000086005E02049096831EA00001E490860F5
:101AE000704710B4002200230021C0B24409E4B2C0
:101AF0002200012A02D10C490B6806E0022A02D119
:101B00000F490B6801E015490B68C0B210F01F02C5
:101B100001209040034201D0012100E00021080093
:101B2000C0B210BC70470000001002400410024018
:101B30000000FFF8FFFFF6FE08100240600042427E
:101B40002010024000127A0000093D00902500009C
:101B5000DC250000181002401C1002402410024036
:101B6000F0B400220026002400250023002791F86D
:101B700003C01CF00F0C624691F803C05FEACC6C06
:101B800001D58B781A430B781B0621D003680024FB
:101B900006E0CD78482D02D10125A5400561641CE1
:101BA000082C14D20125A5400E882E40AE42F6D155
:101BB000A5000F2616FA05F7BB4312FA05F52B43CD
:101BC000CD78282DE5D10125A5404561E7E70360E3
:101BD0000B884FF48074A34226D34368002420E08E
:101BE000012514F10806B5400E882E40AE4217D1EB
:101BF000A5000F2616FA05F7BB4312FA05F52B438D
:101C0000CD78282D04D1012514F10806B540456191
:101C1000CD78482D04D1012514F10806B5400561A1
:101C2000641C082CDCD34360F0BC704789B20161AE
:101C3000704789B24161704710B400220F2311F040
:101C40000304E4B2A400A3401A00C9B28B100E4CE6
:101C500054F8233033EA0202C9B28B100A4C44F81C
:101C60002320C9B28A10084B53F82220C0B211F0C9
:101C70000303DBB29B0098401043C9B28910024AAB
:101C800042F8210010BC7047080001400B49096868
:101C900011F03801094A11600849096808430749E9
:101CA000086070470549096831F01001034A116066
:101CB0000249096808430149086070470020024052
:101CC0008179002938D02C490968026891432A4A51
:101CD00011602A49096802689143284A1160017914
:101CE000254A5158026811430279234B99502449DF
:101CF000096802689143224A116022490968026812
:101D00009143204A1160417910290CD11C4909687E
:101D1000026811431A4A11601A49096800680843A9
:101D20001849086010E04179134A5158026811437C
:101D30004079114A115007E001790F4A5158026861
:101D4000914300790C4A11507047002100220A4B40
:101D50001B6803401A000C4B1B68034203D0002A87
:101D600001D0012100E000210800C0B270470649FF
:101D700008607047000000000004014004040140B6
:101D8000080401400C0401401404014080B500F037
:101D9000A7F901BD80B53C2803D21030C0B200F0D5
:101DA000C5F901BD38B504000D003C2C06D200F089
:101DB0009BF9A44941F8245000F09AF931BD80B54F
:101DC000002000F028F901BD80B5012000F023F9C2
:101DD00001BD80B5022000F01EF901BD80B50320D1
:101DE00000F019F901BD80B5042000F014F901BD1F
:101DF00080B5052000F00FF901BD80B5062000F088
:101E00000AF901BD80B5072000F005F901BD80B5D4
:101E1000082000F000F901BD80B5092000F0FBF8B2
:101E200001BD80B50A2000F0F6F801BD80B50B2099
:101E300000F0F1F801BD80B50C2000F0ECF801BD18
:101E400080B50D2000F0E7F801BD80B50E2000F050
:101E5000E2F801BD80B50F2000F0DDF801BD80B5CE
:101E6000102000F0D8F801BD80B5112000F0D3F8A3
:101E700001BD80B5122000F0CEF801BD80B5132061
:101E800000F0C9F801BD80B5142000F0C4F801BD10
:101E900080B5152000F0BFF801BD80B5162000F018
:101EA000BAF801BD80B5172000F0B5F801BD80B5C6
:101EB000182000F0B0F801BD80B5192000F0ABF893
:101EC00001BD80B51A2000F0A6F801BD80B51B2029
:101ED00000F0A1F801BD80B51C2000F09CF801BD08
:101EE00080B51D2000F097F801BD80B51E2000F0E0
:101EF00092F801BD80B51F2000F08DF801BD80B5BE
:101F0000202000F088F801BD80B5212000F083F882
:101F100001BD80B5222000F07EF801BD80B52320F0
:101F200000F079F801BD80B5242000F074F801BDFF
:101F300080B5252000F06FF801BD80B5262000F0A7
:101F40006AF801BD80B5272000F065F801BD80B5B5
:101F5000282000F060F801BD80B5292000F05BF872
:101F600001BD80B52A2000F056F801BD80B52B20B8
:101F700000F051F801BD80B52C2000F04CF801BDF7
:101F800080B52D2000F047F801BD80B52E2000F06F
:101F900042F801BD80B52F2000F03DF801BD80B5AD
:101FA000302000F038F801BD80B5312000F033F862
:101FB00001BD80B5322000F02EF801BD80B5332080
:101FC00000F029F801BD80B5342000F024F801BDEF
:101FD00080B5352000F01FF801BD80B5362000F037
:101FE0001AF801BD80B5372000F015F801BD80B5A5
:101FF000382000F010F801BD80B5392000F00BF852
:1020000001BD80B53A2000F006F801BD80B53B2047
:1020100000F001F801BD10B5040000F065F80A49B0
:102020000978491C084A117000F062F83C2C06D26D
:10203000044850F824000100002900D08047FEF732
:10204000CEF810BDF8110020AC15002010B40288A5
:1020500012F08F0202800288CB884C8823431A43F7
:1020600002808A8882850A88028501228282054A46
:10207000904202D0044A904201D1097A018610BCF4
:1020800070470000002C014000340140C9B2002913
:1020900004D0018851F00101018004E0018840F280
:1020A000FE32114001807047D2B2002A03D08289EB
:1020B0001143818103E0828932EA01018181704705
:1020C000818470470022008A084201D0012200E08A
:1020D00000221000C0B2704789B2C9430182704724
:1020E00072B6704762B67047EFF3108072B67047F1
:1020F00080F310887047B0FA80F0704790FAA0F033
:10210000704730BF704720BF704750F8041B61B163
:1021100050F8042BD30744BFA9F101039A180023F8
:1021200042F8043B091FFAD1EFE7704738B5C0B257
:10213000002817D0022816D015D3042814D012D3A3
:10214000062828D01CD308280CD00BD30A2809D085
:1021500008D30C2807D006D30E2804D002D30F28AA
:1021600024D02EE04FE04EE0FFF7BEFFDFF89810DE
:10217000096851F48031244A1160FFF7B9FF42E049
:10218000FFF7B2FF2049096851F400311E4A11607F
:10219000FFF7AEFF37E0FFF7A7FF1B49096851F4CF
:1021A0008021194A1160FFF7A3FF2CE0FFF79CFF85
:1021B0001649096851F00101144A1160FFF798FFB0
:1021C00021E013490968491C11F01F014901491C0C
:1021D000C0B2C9B2884216D2C0B2B0F110012022FA
:1021E00091FBF2F4C0B21038202190FBF1F505FB11
:1021F0001105FFF779FFE4B206490122AA4041F830
:102200002420FFF775FF31BD24ED00E010E000E071
:1022100004E000E000E100E0000001000200010035
:10222000030001000200010004000100020001009F
:10223000030001000200010005000100020001008E
:10224000030001000200010004000100020001007F
:10225000030001000200010006000100020001006D
:10226000030001000200010004000100020001005F
:10227000030001000200010005000100020001004E
:10228000030001000200010004000100020001003F
:10229000030001000200010007000100020001002C
:1022A000030001000200010004000100020001001F
:1022B000030001000200010005000100020001000E
:1022C00003000100020001000400010002000100FF
:1022D00003000100020001000600010002000100ED
:1022E00003000100020001000400010002000100DF
:1022F00003000100020001000500010002000100CE
:1023000003000100020001000400010002000100BE
:10231000030001000200010000BF704770B5040017
:102320005FF4000510212F48FFF783FC20212D4882
:10233000FFF77FFC002613E080212A48FFF779FC95
:102340006D0820212748FFF771FC1420FFF7E4FFF8
:1023500020212448FFF76DFC1420FFF7DDFF761CD9
:10236000182E06D22C42E7D080211E48FFF75EFCD3
:10237000E6E71420FFF7D0FF10211A48FFF756FCBC
:1023800070BD80B54020FFF7E0FC002811D0402050
:10239000FFF7EDFC00215FF08040FFF777FE0021A2
:1023A0005FF08040FFF78CFE01215FF08040FFF777
:1023B0006DFE01BD80B501215FF08040FFF782FE18
:1023C00000280CD001215FF08040FFF785FE00213E
:1023D0005FF08040FFF75AFE0348FFF79FFF01BD03
:1023E00000000000000801400304800000B587B031
:1023F000FFF7CCFCFDF7D7FE0320049000200390EC
:102400004020029025480190032000900323244A95
:1024100000210FF21D00FEF713FF05AA214903203A
:10242000FEF776FFFDF725FF002007B000BD000096
:1024300080B5FFF779F8FEF7F4FBFDF73BFF45F2B7
:10244000555000F033F8042000F034F84FF4487091
:1024500000F034F800F036F800F039F81021124896
:10246000FFF7E4FB01211048FFF7E0FB00F02AF83A
:102470004FF4FA73002200210020FEF788FE0121AC
:102480000948FFF7D6FB00F01DF84FF4FA7300225D
:1024900000210020FEF77BFEE4E70000F81000209A
:1024A000F4110020D0250000000801400A4980B244
:1024B000086070470949C0B208607047084980B297
:1024C0000860704704484AF6AA2101607047024834
:1024D0004CF6CC41016070470030004004300040B1
:1024E0000830004010B5084979441C31074C7C4441
:1024F0001A34A14206D0081D0A68511888470146BF
:10250000A142F8D110BD00BF080000001400000077
:10251000FBFBFFFFB41500000000002000000000DE
:1025200000F009F8002801D0FFF7DCFF0020FFF7DA
:102530005DFF00F002F80120704700F001B80100D3
:102540000746384600F002F8FBE70A0080B5C046AF
:10255000C046024A11001820ABBEFBE7260002006D
:1025600075432F4F532D49492049646C6500000085
:1025700075432F4F532D4949205374617400000057
:1025800075432F4F532D494920546D7200000000B0
:102590000000000001020304010203040607080909
:1025A0004F532D546D724C6F636B00004F532D547D
:1025B0006D72536967000000FEE7FEE7FEE7FEE785
:1025C000FEE7FEE7C046C046C046C046FFF7A8FF8C
:1025D00053746172740000007856341202040608C5
:1025E000100001002000400101001C001400020046
:1025F000050010001F00010001000500100024006C
:10260000B4000100040001000400180004000100EF
:102610000400010001000100800001001200100010
:10262000010080000100010020005C00E8030100BF
:042630001E011A0E5F
:04000005000025C50D
:00000001FF
