:10000000C8390020FD360000F1360000F33600004C
:10001000F9360000F5360000F7360000FB36000028
:10002000FB360000FB360000FB360000FB3600000C
:10003000FB360000FB360000EF0A0000050C000054
:10004000331F00003D1F0000471F0000511F00002C
:100050005B1F0000651F00006F1F0000791F00007C
:10006000831F00008D1F0000971F0000A11F0000CC
:10007000AB1F0000B51F0000BF1F0000C91F00001C
:10008000D31F0000DD1F0000E71F0000F11F00006C
:10009000FB1F0000052000000F20000019200000B9
:1000A000232000002D200000372000004120000008
:1000B0004B200000552000005F2000006920000058
:1000C000732000007D2000008720000091200000A8
:1000D0009B200000A5200000AF200000B9200000F8
:1000E000C3200000CD200000D7200000E120000048
:1000F000EB200000F5200000FF2000000921000097
:10010000132100001D2100002721000031210000E3
:100110003B210000452100004F2100005921000033
:10012000632100006D210000772100008121000083
:10013000F8B505000E0014000027002C32D0002D69
:1001400002D1042020702DE0002E02D10C2020705E
:1001500028E0DFF880070078012802D31220207001
:1001600020E02878401E03280ED800F0A3FC0700EA
:10017000300000F03EFBC0B2102808D3380000F079
:100180009DFC0B2020700DE0012020700AE0310062
:1001900015F10F0000F01EFB0500380000F08EFC8A
:1001A00000202070F1BD80B500F0D4FC00F014FAFE
:1001B00000F039FA00F095FA00F0E6F900F056FD8B
:1001C00000F07EFD00F0A4FD00F04DFA00F06AFAA8
:1001D00000F0C3FD00F0C2FC00F0F4FE01BD10B55C
:1001E0000024DFF858080078012841D100F062FCB3
:1001F0000400DFF8E0060078012806D3DFF8D40613
:100200000078401EDFF8CC160870DFF8C8060078CA
:1002100000282AD1DFF8C0060078002825D100F098
:10022000C9FADFF81C080078DFF818180978884246
:100230001BD0DFF80C080078DFF80C1851F820000C
:10024000DFF808180860DFF804080068806B401CBD
:10025000DFF8F81709688863DFF8F4070068401CC6
:10026000DFF8EC17086000F03EFC200000F026FCF0
:1002700010BD80B5DFF8C4070078002819D100F060
:1002800099FADFF8C007DFF8B81709780170DFF8CE
:10029000B0070078DFF8B01751F82000DFF8AC178E
:1002A0000860DFF89407DFF8A4170968016000F020
:1002B00008FC01BD10B50024022000F037FF00F05B
:1002C000F9FB0400DFF88C0700210160200000F03A
:1002D000F5FB642000F02AFF00F0ECFB0400DFF8DF
:1002E0007807DFF8701709680160DFF870070121EF
:1002F0000170200000F0E2FB10BD38B5002400F0D2
:1003000071FC00F0D7FB0400DFF854070068401CC4
:10031000DFF84C170860200000F0D0FBDFF81C0766
:10032000007801285ED1DFF83C070078002803D070
:10033000022805D002D309E001200CE000200AE0E9
:100340000120DFF8201701220A7004E00120DFF805
:10035000141700220A70C0B2002843D0DFF8080743
:10036000056820E0002085F8310095F8300000078E
:1003700015D4DFF8F806007895F836100843DFF852
:10038000EC16087095F83400DFF8E416405C95F838
:100390003510084395F83410DFF8D42688546D6979
:1003A000200000F08BFB95F832001F281AD000F0D7
:1003B00081FB0400E88D0028F1D0E88D401EE8851F
:1003C00080B20028EBD195F8300037210842C9D01F
:1003D00095F8300010F0C80085F83000012085F84D
:1003E0003100C2E731BDF8B50400A07ADFF88456C9
:1003F000405DC0B20519ED7ADFF87866AD5DC0B238
:10040000EDB215EBC005EDB2DFF83C6656F825609D
:100410000027F785716296F83010914386F8301006
:1004200086F8313096F83010090713D4DFF83C16FF
:10043000097896F836201143DFF830261170C0B2E3
:10044000DFF82C16415C96F835201143C0B2DFF876
:10045000202681542100300000F051F8306A002835
:1004600004D0316A300000F063F8F4612800C0B2B3
:10047000F2BDDFF8C4150968C861DFF8BC1509686A
:1004800091F834100918C97ADFF8AC25126892F88F
:1004900035201143DFF8A025126892F83420121895
:1004A000D172817ADFF89025126892F836201143D4
:1004B0008172DFF88405006890F83400C0B2DFF87C
:1004C000B015415CDFF87025126892F83520914331
:1004D000C0B2DFF89C258154C0B2DFF89415405CAF
:1004E00000280BD1DFF884050078DFF84C15096887
:1004F00091F836108843DFF874150870704710B40F
:1005000090F83420D2B25318DB7A90F83540A343E8
:10051000D2B25418E372D2B25218D27A002A05D15C
:100520008A7A90F8360032EA0000887210BC704770
:1005300070B490F8342090F8363090F83540086860
:1005400010E0D2B21518ED7AA543D2B21618F572A2
:10055000D2B21518ED7A002D02D1857A9D438572AD
:10056000091D08680028ECD170BC70470021817219
:1005700000F20B00002103E000220270401C491C25
:10058000C9B20429F8D3704780B54FF4A071DFF8E1
:10059000E80400F0D8F8DFF8E014DFF8E0240020E9
:1005A00009E000230B704A603F23CB7300230B74D8
:1005B00020312032401C80B20928F2D3002008707C
:1005C000002048603F20C87300200874DFF8B004A2
:1005D000DFF8A414016001BDDFF88404002101608C
:1005E000BC4800210170BC4800210170DFF8940470
:1005F00000210170DFF8440400210170DFF850048D
:1006000000210160DFF84C0400210160DFF878046C
:1006100000210160DFF8400400210160DFF83C04A4
:10062000002101707047DFF8440400210170DFF8F9
:100630004014002003E000220A70491C401CC0B294
:100640000428F8D3DFF8FC0300210170DFF8F00381
:1006500000210170DFF8F40300210160DFF8D80306
:1006600000210160704710B586B00320049000207F
:10067000039080200290DFF8140401904FF6FF7081
:1006800000901F23DFF8082400210FF27D1000F0F6
:10069000D7FD040005AADFF8FC131F2000F038FE88
:1006A00006B010BD10B586B0032004900020039062
:1006B00080200290DFF8E00301904FF6FE7000907A
:1006C0001E23DFF8D82300210FF2591000F0B8FDE7
:1006D000040005AADFF8C8131E2000F019FE06B0BA
:1006E00010BD80B54FF4CF61DFF8B80300F02BF8F0
:1006F0008021DFF8540300F026F8DFF8A813DFF8B4
:10070000A82300200BE04A613F2381F84C300023EE
:1007100081F84D3001F25C0102F25C02401CC0B273
:100720001128F0D3002048613F2081F84C000020C0
:1007300081F84D00CC4800210160DFF87003DFF83C
:100740006413016001BD03E000220270401C491ED9
:1007500089B20129F8D2704710B5002400F0AAF937
:1007600004005C480078002820D15B48007800280D
:100770001CD100F01FF8B2480078B24909788842CD
:1007800014D0AF480078B04951F82000AF49086054
:10079000AE480068806B401CAC4909688863AC486F
:1007A0000068401CAA49086000F099F9200000F098
:1007B00085F910BDAD480078AE49405CC0B201007B
:1007C000C9B2AB4A895CAB4A895C11EBC0009C4959
:1007D00008707047002204E00B780370491C401C2D
:1007E000521C0B78002BF7D1002101701000C0B211
:1007F0007047002101E0401C491C0278002AFAD110
:100800000800C0B27047000080B5002000F052F927
:1008100090490968491C8F4A116000F04FF900F0B7
:100820009FF9F3E780B5002002E0C82000F07EFCCD
:100830008A4800780028F8D0874800686421B0FB17
:10084000F1F08549086084480068002805D198487F
:1008500000210170FF2000F0F4FD00F02BF98A491F
:100860007C4A12680A607B4900220A6000F026F97F
:100870008548006878490968B0FBF1F0D0F1640060
:100880008B49087000F06DF900F004F8642000F066
:100890004DFCE2E71CB5002417E000A92000C0B21F
:1008A00000F088FDC0B200280ED1E4B2664850F8CE
:1008B0002400002808D0012806D0C168826812EB05
:1008C0008101416401998164641CE4B2202CE4D369
:1008D00013BD0000BC350020BD3500202DE9F24FCE
:1008E000050016001F00DDF82880DDF82C900C9C18
:1008F0005FF0000A00F0DEF882466C48D0F800B0E5
:10090000BBF1000F00F09280DBF81400674908602B
:10091000504600F0D3F80098CBF800008BF8325026
:1009200000208BF8300000208BF831000020ABF85D
:100930002E00CBF80490CBF80C80CBF80860ABF815
:100940001040ABF8127000208BF83700EDB2E808C9
:100950008BF8340015F007008BF8330001209BF969
:10096000341088408BF8360001209BF93310884002
:100970008BF835000020CBF81C000020CBF82000BD
:100980000020CBF828000020CBF824000020CBF872
:1009900038000020CBF840000020CBF83C000020BD
:1009A000CBF844000020CBF848003F208BF84C00E7
:1009B00000208BF84D00584600F013F9584600F01F
:1009C000CEF800F077F88246EDB21F4840F825B027
:1009D00025480068CBF814000020CBF81800224806
:1009E0000068002803D020480068C0F818B01E48EE
:1009F000C0F800B01D4800789BF8361008431B492A
:100A000008709BF834001A49405C9BF83510084385
:100A10009BF83410164A88541A480078401C19492B
:100A20000870504600F04AF8002003E0504600F0FD
:100A300045F84220BDE8F28F88350020C1350020FE
:100A4000BF350020BE35002028340020903500201E
:100A50005C3500208435002078350020BB3500202F
:100A6000A0350020C335002094350020C03500207B
:100A7000803500202C340000B82F0020D82F002013
:100A800070350020C23500207C350020B82B0020B6
:100A9000B42D002098360000B8290020B42B002087
:100AA000A8360000002000205C2000208C350020AB
:100AB000BA350020EFF3108072B6704780F31088CB
:100AC00070471B48FF210170002080F309881948F6
:100AD0000121017018481949016062B6FEE7164805
:100AE000164901607047144814490160704772B696
:100AF000EFF3098028B1203880E8F00F1049096829
:100B0000086000B50F4880475DF804EB0E480F49B8
:100B10000A7802700A480E490A680260106890E874
:100B2000F00F203080F309884EF0040E62B6704753
:100B300022ED00E0C135002004ED00E000000010CF
:100B400088350020E10B0000BE350020BF350020B5
:100B50009035002040480021018070477047704761
:100B600070477047030010005FF080720260001F42
:100B70000360001F7FF001020260001F5FF012326D
:100B80000260001F5FF003320260001F5FF002325C
:100B90000260001F5FF001320260001F0160001F51
:100BA0005FF011310160001F5FF010310160001F24
:100BB0005FF009310160001F5FF008310160001F24
:100BC0005FF007310160001F5FF006310160001F18
:100BD0005FF005310160001F5FF004310160704774
:100BE0007047704780B51C480088401C1A4908802F
:100BF00019480088642804D317480021018000F0B8
:100C0000A5F801BD80B5FFF755FF14490978491CC7
:100C1000124A1170FFF752FFFFF76FFBFFF7DFFA81
:100C200001BD80B500F095FC4FF47A71B0FBF1F096
:100C3000401E0B4908600B48FF2101700A480068FC
:100C400050F00500084908600748006850F00200AD
:100C50000549086001BD0000B8350020BC35002002
:100C600014E000E023ED00E010E000E080B58C210E
:100C70001148FFF768FD1049104A00200BE00023DF
:100C80000B704A603F238B720023CB7201F21C0170
:100C900002F21C02401C80B20428F0D3002008702D
:100CA000002048603F2088720020C8720148024935
:100CB000016001BD743500209C330020B833002052
:100CC00080B5B4211148FFF73EFD104800210EE029
:100CD00089B224220D4B02FB013202F2240242604F
:100CE0003F2202750022427500F22400491C89B29D
:100CF0000429EDD3002141603F2101750021417598
:100D000001480249016001BD98350020E832002009
:100D100080B560210B48FFF716FD0A490A4A0020FA
:100D200003E00A6018311832401C80B20328F8D35F
:100D30000020086002480349016001BD0000000076
:100D40009C350020A8340020C034002080B5904895
:100D5000006800F0CFFDC0B202BD80B54FF4507105
:100D60008F48FFF7F0FC40218E48FFF7ECFC8C49E0
:100D70008D4A002010E064230B70002381F831308D
:100D8000CA603F2381F82030002381F8213001F22E
:100D9000340102F23402401C80B20F28EBD36420ED
:100DA0000870002081F831000020C8603F2081F8E1
:100DB0002000002081F8210074480021016076485D
:100DC000002101807548102101807248744901603A
:100DD000012000F0E5FC75490860002000F0E0FC0F
:100DE0006B49086000AA724970480068FFF7A0F9D3
:100DF00000AA704966480068FFF79AF900F001F808
:100E000001BD10B586B0032004900020039080201F
:100E10000290694801904FF6FD7000901D23674ACB
:100E200000210FF2ED0000F00BFA040005AA64495E
:100E30001D2000F06DFA06B010BD032280F83120AD
:100E4000C9B2012905D1C169504A126851184161DE
:100E50000DE08169002905D1C1694C4A1268511819
:100E6000416104E08169494A12685118416142694F
:100E70000823B2FBF3F101FB132189B2494A12EBBB
:100E8000C1021168002905D110600021C160012153
:100E9000918006E011681060C16008619188491C6A
:100EA000918000210161704742690823B2FBF3F190
:100EB00001FB132189B23B4A12EBC103196881423D
:100EC00006D1C1681960002908D000220A6105E036
:100ED0000169C268CA60002A00D01161012180F84E
:100EE00031100021C160002101619888401E988066
:100EF000704780B500AA00212C48006800F078FCFB
:100F000001BD80B52948006800F0F4FC01BD000077
:100F100038B501E0FFF7F5FF00AA00211C48006882
:100F200000F066FCFFF7E5FF18480068401C174911
:100F30000860164801680822B1FBF2F000FB1210AD
:100F400080B2184911EBC000046803E0022084F865
:100F500031002C00002CDDD0E5680C480068616988
:100F60008842F6D162681000002802D0A1682000F3
:100F700090472000FFF798FF94F830000228E5D151
:100F800001212000FFF759FFE3E70000A43500200E
:100F9000AC350020B0350020B6350020B435002037
:100FA0007826002008350020AC260020A835002037
:100FB000D8360000E4360000B82D0020B42F002001
:100FC000B83600002C482D4908002D4908002D494D
:100FD00008002D4908002D4908002D4908002D4919
:100FE00008002D4908002D4908002D4908002D4909
:100FF00008002D4908002D4908002D4908002D49F9
:1010000008002D4908002D4908002D4908002D49E8
:1010100008002D4908002D4908002D4908002D49D8
:1010200008002D4908002D4908002D4908002D49C8
:1010300008002D4908002D4908002D4908002D49B8
:1010400008002D4908002D4908002D4908002D49A8
:1010500008002D4908002D4908002D4908002D4998
:1010600008002D4908002D4908002D4908002D4988
:1010700008002D4908007047562B0000103700006B
:101080007A2D0000DA2D00006A3000000E320000D8
:10109000523300002A340000763600008236000009
:1010A000183700001A3700001C3700001E370000F8
:1010B00020370000223700002437000026370000C8
:1010C000283700002A3700002C3700002E37000098
:1010D0003037000032370000343700003637000068
:1010E000383700003A3700003C3700003E37000038
:1010F0004037000042370000443700004637000008
:10110000483700004A3700004C3700004E370000D7
:1011100050370000523700005437000056370000A7
:10112000583700005A3700005C37000010B5040043
:1011300000203F490978012928D2A4B2012C25D3E7
:10114000FFF7B8FC3B49096891F83410C9B23A4A34
:101150008A5C384B1B6893F835309A43C9B2364BDA
:10116000CA54C9B2344A895C002908D13349097884
:10117000304A126892F836209143304A11702D4956
:101180000968CC85FFF79AFCFFF7E6FA10BD38B581
:10119000274C2478012C01D3552048E0C0B2002808
:1011A0000AD1C9B2002907D1D2B2002A04D19BB218
:1011B000002B01D154203AE0C9B23C2901D351207F
:1011C00035E0D2B23C2A01D3522030E04FF47A7499
:1011D0009BB2A34201D3532029E0C0B24FF4616413
:1011E000C9B23C25694304FB0010D2B210184FF479
:1011F0007A719BB24FF47A7202FB03F24FF47A7366
:10120000B2FBF3F201FB0020040C80B280B2FFF7C6
:101210008DFF08E04FF40040FFF788FF4FF40040D7
:10122000FFF784FF641EA4B2012CF3D2002032BD6C
:10123000BC3500208835002080350020C0350020D6
:101240002DE9F14F84B00F0090461E000E9CDDF892
:101250003C90DDF840A0DDF844B0129D0020F6B2CD
:10126000202E01D32A2050E0FFF724FCDFF89C1247
:101270000978012903D3FFF721FC3C2045E0F6B2B1
:10128000DFF8741251F8261000293BD1F6B2DFF8CE
:101290006812012241F82620FFF710FC2A0092B2C2
:1012A0005146484600F034F92B009BB242463900C3
:1012B0000498FFF757FC0100ADB20295CDF804B0D9
:1012C000CDF800A023009BB24A463000C0B2FFF721
:1012D00005FB0400E4B2002C07D1DFF82C020078F3
:1012E00001280CD1FFF738FA09E0FFF7E3FBF6B26B
:1012F000DFF80412002241F82620FFF7DFFB200070
:10130000C0B202E0FFF7DAFB282005B0BDE8F08F9D
:10131000F8B507000D0014000026002C49D0FFB2DC
:10132000202F05D3FFB2FF2F02D02A20207040E0EB
:10133000002D02D10C2020703BE074480078012879
:1013400002D31220207034E0FFF7B4FB0600FFB296
:10135000FF2F03D16948006890F83270FFB26648E9
:1013600050F82770002F05D13000FFF7A7FB43206E
:1013700020701EE0012F05D13000FFF79FFB4320B6
:10138000207016E02800FFF734FAC0B2102805D309
:101390003000FFF793FB412020700AE0290017F18D
:1013A0004C00FFF717FA05003000FFF787FB00201D
:1013B0002070F1BDF8B505000C000020EDB2202D25
:1013C00004D3EDB2FF2D01D02A2039E0002C01D149
:1013D000092035E00020206000206060FFF76AFBF4
:1013E000EDB2FF2D03D14549096891F83250EDB2B5
:1013F000414951F82510002903D1FFF75FFB432035
:101400001EE0012903D1FFF759FB432018E00A7CB5
:10141000D20703D4FFF752FB452011E00026CF6826
:101420008D68FFF74BFB00E0761C2800051D006867
:101430000028F9D0B0002060B81B80006060002058
:10144000F2BD38B505000020EDB21F2D01D14720B7
:1014500051E0EDB21F2D04D3EDB2FF2D01D02A20B3
:1014600049E0FFF727FBEDB2FF2D05D123490968BD
:1014700091F83250012409E02049096891F83210AE
:10148000EDB28D4201D1012400E00024EDB21A49F1
:1014900051F82510002903D1FFF710FB48202AE05E
:1014A000012903D1FFF70AFB432024E091F83420FF
:1014B000D2B2134BD35C91F83550AB43D2B2104D3E
:1014C0005355D2B20E4BD25C002A06D10D4A127887
:1014D00091F836309A430B4B1A7091F8302052F045
:1014E000080281F83020FFF7E9FAE4B2012C01D1BB
:1014F000FFF732F9002032BD283400208835002063
:1015000080350020C0350020C1350020BC350020CA
:10151000D30708D5920704D405E0491E00220260D3
:10152000001D0029F9D1704780B500F040F800F0A7
:10153000D4F800F012F800F0B1F800F0F8F800F07C
:1015400081F801BD80B58D4800F0B9FA8B4840683C
:1015500002BD80B5FFF7F6FF02BD80B50F20ADF8E4
:10156000000010208DF8030003208DF8020000A970
:10157000834800F075FBB020ADF8000018208DF80E
:10158000030003208DF8020000A97D4800F068FBED
:1015900040F20340ADF8000010208DF80300032056
:1015A0008DF8020000A9774800F05AFB01BD80B514
:1015B00000F0D2F95FF4803000F0FDF900F025FA78
:1015C000C0B201283DD1102000F0ECFB022000F059
:1015D000DDFB002000F054FA002000F065FA4FF423
:1015E000806000F057FA5FF4E0115FF4803000F0A3
:1015F00029FA012000F031FA392000F0F0FA002831
:10160000FAD0022000F02DFA00F035FA0828FBD1BC
:101610000121012000F0C3FA0121042000F0BFFAEB
:101620000121082000F0BBFA01214FF4805000F0A6
:10163000B6FA0121012000F0C2FA0121012000F0D8
:101640009EFA01BD00B585B00020ADF80000002075
:10165000ADF802000020ADF804000020ADF806004F
:101660000120ADF808000020ADF80A000820ADF810
:101670000C000020ADF80E000720ADF8100000A906
:10168000414800F09DFB012201213F4800F0C6FBCC
:1016900001213D4800F0B4FB05B000BD00B583B0AA
:1016A0000421002000F048FB1020009000208DF85D
:1016B000040008208DF8050001208DF8060000A820
:1016C00000F0B8FB0A2000F00CFC30490A2000F0C2
:1016D00023FC0A2000F018FC07BD00B58BB02C4895
:1016E00000F06EFD2B4800902B48019000200290E6
:1016F0004FF40050039000200490802005900020BB
:10170000069000200790002008904FF44050099068
:1017100000200A9000A91E4800F0CFFD202000F014
:10172000F8FD01211A4800F0E7FD0BB000BDE0B55F
:101730000920ADF8040048F69F40ADF800000020F5
:10174000ADF806000020ADF8020000A95FF080406F
:1017500000F0F0FD00215FF0804000F00BFE012260
:1017600001215FF0804000F013FE0C491C2000F0C6
:10177000D3FB1C2000F0C8FB07BD0000483500204B
:1017800000080140000C014000300140ED24000041
:101790001C0002400C3001400000002085260000A3
:1017A00038B5040000204F490978012901D30020F1
:1017B0001DE0FFF77FF94C490D684B490968002986
:1017C00004D0494909684968474A1160FFF776F92A
:1017D000002D0BD0032028702C81002068603F2052
:1017E000E873002028742800FEF7C0FE280032BDF0
:1017F000F8B505000E0014000027002C6FD0002D56
:1018000002D1042020706AE02878032802D0012049
:10181000207064E033480078012802D30220207051
:101820005DE032480078012802D30D20207056E098
:10183000FFF740F907002889012808D32889401EAE
:1018400028813800FFF73AF90020207047E0284847
:10185000006890F8300050F001002549096881F8CF
:10186000300023480068002180F8311020480068CB
:10187000C6852800FEF7FDFD3800FFF71FF9FEF7CB
:101880006BFFFFF717F907001948006890F831005F
:10189000002802D0022803D005E00020207009E0D3
:1018A0000E20207006E0290011480068FEF727FE90
:1018B0000A2020700E480068002180F830100C4883
:1018C0000068002180F83110094800680021C161DA
:1018D00007480068002101623800FFF7EFF8F1BD0A
:1018E00000000000BC35002070350020BD35002010
:1018F0008835002038B504000025002C01D10420D3
:1019000029E02078032801D0012024E0FFF7D2F855
:101910000500A07A00280DD000230122002120001C
:10192000FEF761FD04002800FFF7C8F8FEF714FF7A
:10193000002010E020894FF6FF71884207D02089EF
:10194000401C20812800FFF7B9F8002003E02800A0
:10195000FFF7B4F8322032BDDFF8C802006850F05B
:101960000100DFF8C0120860DFF8BC020068DFF891
:10197000BC120840DFF8B0120860DFF8A802006867
:10198000DFF8AC120840DFF89C120860DFF8940220
:10199000006830F48020DFF88C120860DFF88802DD
:1019A000006830F4FE00DFF880120860DFF884027F
:1019B000002101607047DFF86C12096831F4803152
:1019C000DFF860221160DFF85C12096831F48021D1
:1019D000DFF850221160B0F5803F03D0B0F5802FC2
:1019E00009D011E0DFF83C02006850F48030DFF8E5
:1019F0003412086008E0DFF82C02006850F4A020E0
:101A0000DFF820120860FFE7704780B500200090E3
:101A100000200021312000F0E2F801000098401C75
:101A20000090C9B2002903D10098B0F5A06FF1D1A0
:101A3000312000F0D4F8002801D0012000E000207F
:101A4000C0B202BD0022784B1B681A0032F47C122F
:101A5000084302437448026070477749C0B2086087
:101A600070470021704A12681100890889000143FB
:101A70006D48016070476C48006810F00C007047BA
:101A80000021694A1268110031F0F00101436648F3
:101A9000016070470021644A1268110031F4E0616E
:101AA000014361480160704700215F4A12681100DC
:101AB00031F4605151EAC0015B480160704730B4B5
:101AC0000022002100230024574D2D6815F00C053D
:101AD0002A00002A04D0042A05D0082A06D021E0D2
:101AE0005749016020E0564901601DE04E490968F0
:101AF00011F47011890C891C4B4A126812F480335E
:101B0000002B03D14F4A514301600AE0464A126854
:101B1000920303D54B4A5143016002E0484A5143C6
:101B2000016001E0464901603F49096811F0F00297
:101B300012094549545C0168E14041603A4909682D
:101B400011F4E062120A4049545C4168E14081604E
:101B50003549096811F46052D20A3B49545C416826
:101B6000E140C1603049096811F44042920B3749A5
:101B7000545CC168B1FBF4F1016130BC7047C9B27B
:101B8000002905D03249096808433149086005E059
:101B90002F49096831EA00002D4908607047C9B231
:101BA000002905D02B49096808432A49086005E047
:101BB0002849096831EA0000264908607047C9B21F
:101BC000002905D02449096808432349086005E035
:101BD0002149096831EA00001F490860704710B4C4
:101BE000002200230021C0B24409E4B22200012AED
:101BF00002D10C490B6806E0022A02D10F490B689A
:101C000001E016490B68C0B210F01F02012090409D
:101C1000034201D0012100E000210800C0B210BC45
:101C20007047000000100240041002400000FFF85E
:101C3000FFFFF6FE08100240600042422010024002
:101C400000127A0000093D00C83600001437000079
:101C500014100240181002401C10024024100240D0
:101C6000F0B400220026002400250023002791F86C
:101C700003C01CF00F0C624691F803C05FEACC6C05
:101C800001D58B781A430B781B0621D003680024FA
:101C900006E0CD78482D02D10125A5400561641CE0
:101CA000082C14D20125A5400E882E40AE42F6D154
:101CB000A5000F2616FA05F7BB4312FA05F52B43CC
:101CC000CD78282DE5D10125A5404561E7E70360E2
:101CD0000B884FF48074A34226D34368002420E08D
:101CE000012514F10806B5400E882E40AE4217D1EA
:101CF000A5000F2616FA05F7BB4312FA05F52B438C
:101D0000CD78282D04D1012514F10806B540456190
:101D1000CD78482D04D1012514F10806B5400561A0
:101D2000641C082CDCD34360F0BC704789B20161AD
:101D3000704789B24161704710B400220F2311F03F
:101D40000304E4B2A400A3401A00C9B28B100E4CE5
:101D500054F8233033EA0202C9B28B100A4C44F81B
:101D60002320C9B28A10084B53F82220C0B211F0C8
:101D70000303DBB29B0098401043C9B28910024AAA
:101D800042F8210010BC7047080001400B49096867
:101D900011F03801094A11600849096808430749E8
:101DA000086070470549096831F01001034A116065
:101DB0000249096808430149086070470020024051
:101DC00010B4002203881A0012F441520B884C8888
:101DD00023438C882343CC8823430C8923434C8999
:101DE00023438C892343CC8923431A430280828B6B
:101DF0004FF2FF731A408283098A018210BC704738
:101E0000C9B2002904D0018851F04001018004E0EA
:101E100001884FF6BF72114001807047D2B2002A8C
:101E200003D082881143818003E0828832EA010175
:101E3000818070478179002938D02C49096802686F
:101E400091432A4A11602A49096802689143284A45
:101E500011600179254A5158026811430279234BD8
:101E600099502449096802689143224A1160224925
:101E7000096802689143204A1160417910290CD108
:101E80001C490968026811431A4A11601A49096815
:101E9000006808431849086010E04179134A515816
:101EA000026811434079114A115007E001790F4A45
:101EB00051580268914300790C4A11507047002133
:101EC00000220A4B1B6803401A000C4B1B6803429C
:101ED00003D0002A01D0012100E000210800C0B297
:101EE0007047064908607047000000000004014088
:101EF00004040140080401400C04014014040140A2
:101F000080B500F057FA01BD80B53C2803D21030EF
:101F1000C0B200F075FA01BD38B504000D003C2CCC
:101F200006D200F04BFAA44941F8245000F04AFAD6
:101F300031BD80B5002000F028F901BD80B5012039
:101F400000F023F901BD80B5022000F01EF901BDAB
:101F500080B5032000F019F901BD80B5042000F020
:101F600014F901BD80B5052000F00FF901BD80B561
:101F7000062000F00AF901BD80B5072000F005F940
:101F800001BD80B5082000F000F901BD80B5092031
:101F900000F0FBF801BD80B50A2000F0F6F801BDA5
:101FA00080B50B2000F0F1F801BD80B50C2000F0E9
:101FB000ECF801BD80B50D2000F0E7F801BD80B55B
:101FC0000E2000F0E2F801BD80B50F2000F0DDF832
:101FD00001BD80B5102000F0D8F801BD80B51120FA
:101FE00000F0D3F801BD80B5122000F0CEF801BD9D
:101FF00080B5132000F0C9F801BD80B5142000F0B1
:10200000C4F801BD80B5152000F0BFF801BD80B552
:10201000162000F0BAF801BD80B5172000F0B5F821
:1020200001BD80B5182000F0B0F801BD80B51920C1
:1020300000F0ABF801BD80B51A2000F0A6F801BD94
:1020400080B51B2000F0A1F801BD80B51C2000F078
:102050009CF801BD80B51D2000F097F801BD80B54A
:102060001E2000F092F801BD80B51F2000F08DF811
:1020700001BD80B5202000F088F801BD80B5212089
:1020800000F083F801BD80B5222000F07EF801BD8C
:1020900080B5232000F079F801BD80B5242000F040
:1020A00074F801BD80B5252000F06FF801BD80B542
:1020B000262000F06AF801BD80B5272000F065F801
:1020C00001BD80B5282000F060F801BD80B5292051
:1020D00000F05BF801BD80B52A2000F056F801BD84
:1020E00080B52B2000F051F801BD80B52C2000F008
:1020F0004CF801BD80B52D2000F047F801BD80B53A
:102100002E2000F042F801BD80B52F2000F03DF8F0
:1021100001BD80B5302000F038F801BD80B5312018
:1021200000F033F801BD80B5322000F02EF801BD7B
:1021300080B5332000F029F801BD80B5342000F0CF
:1021400024F801BD80B5352000F01FF801BD80B531
:10215000362000F01AF801BD80B5372000F015F8E0
:1021600001BD80B5382000F010F801BD80B53920E0
:1021700000F00BF801BD80B53A2000F006F801BD73
:1021800080B53B2000F001F801BD10B5040000F05F
:1021900015F90A490978491C084A117000F012F92A
:1021A0003C2C06D2044850F824000100002900D03D
:1021B0008047FEF714F810BDF8310020BC35002030
:1021C0000168490849000160002101600021416067
:1021D000002181600021C1605249401A18D0143892
:1021E0001DD0143822D0143827D014382CD01438ED
:1021F00031D0143836D04FF46271401A39D01438C7
:102200003ED0143843D0143848D014384DD053E061
:102210004548006850F00F00434908604CE04248D0
:10222000006850F0F0004049086045E03E48006812
:1022300050F470603C4908603EE03B48006850F450
:1022400070403949086037E03748006850F4702022
:102250003549086030E03448006850F47000324975
:10226000086029E03048006850F070602E4908602E
:1022700022E02E48006850F00F002C4908601BE057
:102280002A48006850F0F0002849086014E0274808
:10229000006850F47060254908600DE0234800682C
:1022A00050F470402149086006E02048006850F46E
:1022B00070201E490860FFE7704710B400220368D1
:1022C0001A001B4B1A408B680C6A23430C6923438A
:1022D0004C6923438C692343CC6923434C6A2343D1
:1022E0008C6A23431A430260CA6842600A688260AB
:1022F0004968C16010BC7047C9B2002904D00168A8
:1023000051F00101016003E00168490849000160E2
:102310007047C10002D50549086001E00249086024
:10232000704700000800024004000240040402401C
:102330000F80FFFF10B4028812F08F020280028823
:10234000CB884C8823431A4302808A8882850A8876
:10235000028501228282054A904202D0044A9042BC
:1023600001D1097A018610BC70470000002C0140A1
:1023700000340140C9B2002904D0018851F00101A4
:10238000018004E0018840F2FE3211400180704774
:10239000D2B2002A03D082891143818103E082896D
:1023A00032EA0101818170478184704789B2C94353
:1023B0000182704772B6704762B67047EFF31080C3
:1023C00072B6704780F310887047B0FA80F070479B
:1023D00090FAA0F0704730BF704720BF704750F8A8
:1023E000041B61B150F8042BD30744BFA9F10103CA
:1023F0009A18002342F8043B091FFAD1EFE770470F
:1024000038B5C0B2002817D0022816D015D304283A
:1024100014D012D3062828D01CD308280CD00BD3F4
:102420000A2809D008D30C2807D006D30E2804D0D8
:1024300002D30F2824D02EE04FE04EE0FFF7BEFF7E
:10244000DFF89810096851F48031244A1160FFF7D1
:10245000B9FF42E0FFF7B2FF2049096851F40031AB
:102460001E4A1160FFF7AEFF37E0FFF7A7FF1B49D9
:10247000096851F48021194A1160FFF7A3FF2CE08D
:10248000FFF79CFF1649096851F00101144A1160D9
:10249000FFF798FF21E013490968491C11F01F015B
:1024A0004901491CC0B2C9B2884216D2C0B2B0F1CB
:1024B0001001202291FBF2F4C0B21038202190FBD1
:1024C000F1F505FB1105FFF779FFE4B2064901229A
:1024D000AA4041F82420FFF775FF31BD24ED00E04C
:1024E00010E000E004E000E000E100E080B5102032
:1024F000FFF7E5FC002811D01020FFF7F2FC0021C7
:102500005FF08040FFF736FF00215FF08040FFF76B
:102510004BFF01215FF08040FFF72CFF01BD38B574
:1025200004000221DFF88005FFF703FC0421DFF837
:102530007805FFF7FEFB0821DFF86C05FFF7F9FBD4
:10254000002522E00821DFF86005FFF7F2FB0123F8
:10255000002200210020FEF71AFE0421DFF84805C2
:10256000FFF7E4FB0123002200210020FEF70FFE0D
:102570000421DFF83405FFF7DCFB012300220021F2
:102580000020FEF704FE64006D1CEDB2082D07D29A
:102590002006D7D50821DFF81005FFF7C7FBD6E7DF
:1025A0000221DFF80405FFF7C1FB0123002200210F
:1025B0000020FEF7ECFD0221DFF8EC04FFF7B9FB89
:1025C0000123002200210020FEF7E1FD31BD38B5D6
:1025D00004000221DFF8D404FFF7ABFB4FF4806165
:1025E000DFF8C804FFF7A5FB0121DFF8C004FFF7FF
:1025F000A0FB002524E00121DFF8B004FFF799FBE0
:102600000123002200210020FEF7C1FD4FF480616C
:10261000DFF89804FFF78AFB012300220021002045
:10262000FEF7B5FD4FF48061DFF88004FFF781FB12
:102630000123002200210020FEF7A9FD64006D1C8B
:10264000EDB2092D07D22004D5D50121DFF85C04B5
:10265000FFF76CFBD4E70221DFF85004FFF766FBBD
:102660000123002200210020FEF791FD0221DFF866
:102670003C04FFF75EFB0123002200210020FEF74F
:1026800086FD31BD2DE9F04F83B000215FF0804021
:10269000FFF770FE01215FF08040FFF787FE002109
:1026A000DFF80C04FFF728FE002400E0E41C41F6EC
:1026B000FD70A4B2844280F03281A4B2DFF8F4034A
:1026C000205CA4B2DFF8EC1361184978090251EAE2
:1026D0000040A4B2DFF8DC13611889780843C0F326
:1026E0000B21052946D110F00F01002909D002293C
:1026F0000DD009D3042910D00CD3062913D00FD341
:1027000013E05FF0804510E05FF081450DE05FF081
:1027100082450AE05FF0834507E05FF0844504E00E
:102720005FF0854501E05FF0864510F0F00100297B
:102730000CD010290DD020290ED030290FD04029DF
:1027400010D0502911D0602912D013E05FF08046DC
:1027500010E05FF081460DE05FF082460AE05FF036
:10276000834607E05FF0844604E05FF0854601E0C1
:102770005FF08646C0F30B2140F23122914202D134
:1027800001008DF80510C0F30B2140F23322914275
:1027900002D101008DF80410C0F30B214FF40D722B
:1027A000914202D101008DF80310C0F30B2140F2D9
:1027B0003522914203D110F07F018DF80210C0F351
:1027C0000B2140F27122914202D101008DF80110DB
:1027D000C0F30B2140F27322914202D101008DF827
:1027E0000010C0F30B214FF41D72914200D18146BD
:1027F000C0F30B2140F27522914201D110F07F0805
:102800002800AD4900F086F942D89DF8050000F097
:1028100093F9290000F0A0F90100A84800F01AFA85
:1028200000F084FA00F0AAFA00F0D8FA07009DF848
:1028300002009DF80310090211EB00409DF80410FE
:10284000081800F0E1FA5FF080429D4B00F0EAFAD0
:1028500082468B46280000F069FA02000B005046C1
:10286000594600F0DFFA02000B000020954900F005
:10287000FDFB00F0CDFC8246380000F05DF9010060
:10288000504600F00DFD00F051FA8F4AC2E90001F8
:102890003000894900F03EF93FF608AF9DF801008D
:1028A00000F04AF9310000F057F9844900F0D2F9FC
:1028B00000F03CFA00F062FA00F090FA07005FFACC
:1028C00088F85FFA89F95FEA092010EB08409DF863
:1028D0000010081800F098FA5FF08042784B00F082
:1028E000A1FA04000D00300000F020FA02000B00F5
:1028F0002000290000F096FA0022724B00F0B6FB8F
:1029000000F086FC0400380000F016F901002000F9
:1029100000F0C6FC00F00AFA6C4AC2E900016A4AFB
:10292000D2E9000100226A4B00F0FCFC03D2012036
:10293000FFF7F5FD3EE0644AD2E900010022654B55
:1029400000F0F0FC03D20220FFF7E9FD32E05E4A1E
:10295000D2E900010022604B00F0E4FC03D2042025
:10296000FFF7DDFD26E0584AD2E9000100225B4B6B
:1029700000F0D8FC03D20820FFF7D1FD1AE0524A3C
:10298000D2E900010022564B00F0CCFC03D210200B
:10299000FFF7C5FD0EE04C4AD2E900010022514B81
:1029A00000F0C0FC03D22020FFF7B9FD02E0402078
:1029B000FFF7B5FD454AD2E900014B4A4B4B00F009
:1029C000B1FC03D28020FFF702FE62E03F4AD2E969
:1029D00000015FF06632464B00F0A4FC04D24FF4D5
:1029E0008070FFF7F4FD54E0384AD2E900013E4A16
:1029F000404B00F097FC04D24FF40070FFF7E7FD66
:102A000047E0324AD2E900015FF033323A4B00F03E
:102A100089FC04D24FF48060FFF7D9FD39E02B4ADE
:102A2000D2E900015FF06632344B00F07BFC04D247
:102A30004FF40060FFF7CBFD2BE0244AD2E9000100
:102A40002F4A304B00F06EFC04D24FF48050FFF759
:102A5000BEFD1EE01D4AD2E900015FF066322A4B3E
:102A600000F060FC04D24FF40050FFF7B0FD10E01E
:102A7000164AD2E900010022244B00F053FC04D294
:102A80004FF48040FFF7A3FD03E04FF40040FFF751
:102A90009EFD1F484FF40051016001210448FFF7DB
:102AA0002BFCBDE8F78F000000080140000C01403E
:102AB0001C000240000000200100803F0000A042F6
:102AC000FCFF5F4100005440603500206835002065
:102AD00000207C4000E0854000C0924000209C40E7
:102AE000005CA2400050A440CDCCCCCCCC6C5D406E
:102AF00066466640CCC47140335B7C40669E86402F
:102B00009A999999990B924066CA9C4000F8A64000
:102B1000200002404FF0807C1CEB400F94BF1CEB68
:102B2000410F05E040EA010C5FEA4C0C01D2814202
:102B3000704718BF88427047002800BF0AD0B0FA1B
:102B400080F18840D1F19D01C905020672F1004271
:102B500041EB10207047010010B5FF2313EAD05459
:102B60001DBF13EAD1529C429A4239E0A41ADA07F7
:102B700080EA0103134042EA012142EA0020421A9E
:102B80003CBF641E01EB4202090AB2FBF1FE01FBED
:102B90001E221202B2FBF1F001FB10226EF30F2095
:102BA0001202B2FBF1FE4EEA00207F3406DDFE2C5D
:102BB00024DA53EA500050EBC45010BDD4F10204A3
:102BC00001FB1E2240F08071192C1DDC21FA04F05B
:102BD000C4F12004A140114371F10042584110BDDD
:102BE0009C421ABF03EAD1529A420FE080EA010EDA
:102BF0000EF00043400004D0490016D143F0FF40DE
:102C000010BD490008BFD343180010BD9C4205D138
:102C1000D21AF7D001F00041484010BD4A0212BF5D
:102C20000846484000F0004010BD4AB90902B1FA18
:102C300081F2914044B1A418C00140F000409EE7E9
:102C4000C90141F0004152420002B0FA80F4A040B4
:102C5000141B94E7FF2212EAD05C1DBF12EAD15385
:102C6000944593422BE09C44D30780EA01021A402A
:102C700043EA002043EA0121A1FB0030410038BFB4
:102C800040007CF17F010BDBFE294ADA5B0842EA57
:102C9000C15153EA006373F1004C51EB10207047AF
:102CA000D1F1080CDCF120012FDB5B0810FA01F1F7
:102CB0000B4373F1004120FA0CF0504170479445EA
:102CC0001CBF02EAD153934280EA010202F00042A3
:102CD0001DD0400019D0490017D05BB9634514D00E
:102CE0000902B1FA81F39940BCEB030CC00140F03A
:102CF0000040C1E70002B0FA80FC10FA0CF0B3EB20
:102D00000C0CC90141F00041B6E7100070474000CB
:102D10000AD0490008D010F1807F94BF11F1807F64
:102D200002E042F0FF407047D04370475FF0FF0C75
:102D30001CEAD05114BF614506E0C110400721F0E4
:102D4000E04101F16051704779B900F000410002A3
:102D50000AD0B0FA80FC00FA0CF001F16051A1EB4E
:102D60000C5101EBD0214005704741020CBF40F4EB
:102D7000E0016FF00001002070470A0040F2FF7C84
:102D80001CEA115240F2FE33D21ACCBFD2F1350305
:102D900016E0B2F1150309DA6FEA4C53D340094249
:102DA00001D5401E59410020994370476FF0000241
:102DB000DA40094202D5801851F100019043704772
:102DC000352A09DA50EA41031CBF4FEA0C5101F1E0
:102DD000804138BF0021002070471000400D40EABC
:102DE000C120490080F00D8040F00040490DA1F560
:102DF0008061491C05D4D1F11F0154BFC840C017E0
:102E000070474FF000007047010000BF09D0B0FAD2
:102E100080F18840C91CC1F58461090501EBD0210E
:102E200040057047F0B540F2FF7581EA030C0CF0E5
:102E3000004C15EA11541DBF15EA1357AC42AF42BE
:102E4000E5E0BC41C1F31301C3F31303801A9941B8
:102E500043F4801304D2641E400049418018594154
:102E6000C90241EA5051B1FBF3F603FB1611A2FB74
:102E70000675D7EBC020A94102D2761E80185941B1
:102E8000C90241EA5051B1FBF3FE03FB1E11A2FB44
:102E90000E75D7EBC020A94103D2AEF1010E801808
:102EA0005941890241EA9051760546EA8E2EB1FBDE
:102EB000F3F603FB1611A2FB0675D7EB8020A941A0
:102EC00002D2761E80185941C90241EA50514EEA99
:102ED000060EB1FBF3F603FB1611A2FB0675D7EB4A
:102EE000C020A94102D2761E80185941C90241EA88
:102EF0005051B1FBF3F703FB1711A2FB0735D3EBDE
:102F0000C020A94167F100070CBF004247F001074C
:102F100066F3D5274FEA1E31B80814F5806412DD38
:102F2000BD0775F1004250EB0E5051EB045111F505
:102F3000801F5CBF41EA0C01F0BD4CF07F6141F0A5
:102F4000E0410020F0BDBD076D0840EA0E5041F49D
:102F50008011D4F10104B4F120060ADAC4F120068C
:102F60000200E04001FA06F3E1401843B240154385
:102F70000EE0342C13DCC6F1200445EA40056D0850
:102F800020FA06F2154321FA06F0A1400D43002174
:102F900075F1004250F1000051EB0C01F0BD002032
:102FA0005FEA0C01F0BDCFB992185B41B3FA83F729
:102FB00004BFB2FA82F6BF190B3FB7F120062FBF4C
:102FC00002FA06F3BB40C7F1200622FA06F638BF24
:102FD0003343BA401CB1E419641E33E77F4231F039
:102FE0000041B1FA81F404BFB0FA80F6A4190B3C99
:102FF000B4F120062FBF00FA06F1A140C4F120066B
:1030000020FA06F638BF3143A0403C1B1AE7AC4219
:103010001ABF05EA1357AF4212E050EA41061CBF3F
:1030200052EA4306BFE750EA4107304661461CBFFB
:1030300041EA0551F0BD52EA430C08BFC143F0BD5F
:1030400000204FF4001616EB410F98BF16EB430F0C
:1030500008BF16EB410F24BFC14305E016EB430F39
:103060000CBF61464CEA0551F0BD0100B0B581EAE4
:10307000030C0CF0004C40F2FF7515EA11541DBF13
:1030800015EA1357AC42AF4239E0E41923EA45533D
:1030900043F48013C90241F0004141EA505EC70287
:1030A0001100A7FB020200284FF00000EEFB0120F8
:1030B0004FF00001E3FB072118BF42F00102401866
:1030C00000214941E3FB0E01A4F580640F0302D205
:1030D00052004041494154F101046CDD470872F14E
:1030E000004250F1000051EB0451A1F580115CBF8A
:1030F00041EA0C01B0BD4CEA05510020B0BD05EA23
:103100001357AC4214BFAF4241E050EA410E1CBF1E
:1031100052EA430E02E061460020B0BD24423C4426
:103120001BD15FEA070EF6D0090302BF014600205B
:10313000AEF1140EB1FA81F7AEEB070401FA07FE07
:103140000C37C7F1200100FA07F7C8404EEA000E1D
:1031500023EA455343F48013A2E733F00043B3FA64
:1031600083F704BFB2FA82FE77440B3FE41BB7F14A
:10317000200E2FBF02FA0EF3BB40C7F1200E22FA39
:103180000EFE38BF43EA0E03BA40641C82E750EAE1
:10319000410E14BF52EA430E6FF000014FF40017C6
:1031A00017EB430F8ABF194617EB410FB5E74CEAFF
:1031B00005510020B0BDD4F10104B4F120070FDAAD
:1031C000C4F12007520828BF42F0010210FA07F5A7
:1031D00001FA07F7E1BF2A43E0403843E1400FE03E
:1031E000352C98DCC7F1200452EA400220FA07F29D
:1031F00018BF42F0010231FA07F0A1400A43002152
:1032000072F1004250F1000051EB0C01B0BD200002
:103210004FEAF17CBCF1E04C2CBFBCF5001F11E083
:103220005FEA4C0C34BFBCF17F5F2EE05FEA9C0C80
:103230004FEA0C1C4FEA3C0CC10071F100414CEB11
:1032400050707047C90241EA5051C00218BF41F0A6
:10325000010141F000414FEA6C50C0F10900212802
:1032600010D240EACC7CCCF1200C11FA0CF070F1B9
:103270000040CCF1200C21FA0CF00CF0004C40EB9B
:103280000C0070474FEACC707047490011F5001FE1
:1032900004D84FEACC10FF30C0057047C8177047FC
:1032A00090EA010F44BF81F0004100F053B800BF25
:1032B000421A3CBF801A89184FF0004CC0F3C75225
:1032C000FF2A24D0C1F3C75313B3D21AD2F1190382
:1032D00027DD4CEA01214CFA03F321EA0303D14034
:1032E000C20D4CEA0020401834BF20EA0C004CEA22
:1032F0005000D20553EA006373EB0C0C52EB102024
:10330000420012F1807F38BF7047C00DC005704782
:10331000490212BF9A4200EB5120F8E7D2F117039D
:10332000D9D570474FF4001C1CEB410F94BF1CEB28
:10333000430F09E041EA030C50EA4C0C52EA0C0C32
:1033400003D2994208BF9042704714BF8B42824219
:1033500070474001431A4FF000423EBF5340C01A2D
:10336000C91800BFD3095FEAD05C13EB400F34BF2C
:10337000B3EB410F40E07CEBD1530CD342EA012187
:1033800022D8D1EB402009D3400A28BF5FEA500180
:1033900040EBCC507047401A15D04002B0FA80F292
:1033A000521C9040400A4FEA3C23B3EB026384BFB7
:1033B00000EB730007E040F400001A16DB07C2F1CF
:1033C0000102D04018437047182BFCDC31FA03F29D
:1033D00002FA03F3591A38BF42F00102D2EB40203F
:1033E0003CBF4000ACF1010C5FEACC5CC20572F15D
:1033F00000414CEB5020704713EB400F0FD24B00B5
:1034000009D0ACEBD153022B03DB4902172BDDDDD6
:1034100070479143401A4300D5D10020704713EB09
:10342000410FD0D36FF00000704701000000010091
:10343000020001000300010002000100040001007D
:10344000020001000300010002000100050001006C
:10345000020001000300010002000100040001005D
:10346000020001000300010002000100060001004B
:10347000020001000300010002000100040001003D
:10348000020001000300010002000100050001002C
:10349000020001000300010002000100040001001D
:1034A000020001000300010002000100070001000A
:1034B00002000100030001000200010004000100FD
:1034C00002000100030001000200010005000100EC
:1034D00002000100030001000200010004000100DD
:1034E00002000100030001000200010006000100CB
:1034F00002000100030001000200010004000100BD
:1035000002000100030001000200010005000100AB
:10351000020001000300010002000100040001009C
:1035200002000100030001000200010000B587B0A5
:10353000FEF7E6FCFCF737FE032004900020039022
:103540004020029023480190032000900323224A48
:1035500000210FF21D00FDF773FE05AA1F4903208D
:10356000FDF7D6FEFCF785FE002007B000BD000089
:1035700080B5FDF7D9FFFDF754FBFCF79BFE45F244
:10358000555000F02FF8042000F030F84FF4487048
:1035900000F030F800F032F800F035F80121104862
:1035A000FEF7C4FB00F02AF84FF4FA730022002162
:1035B0000020FDF7ECFD01210948FEF7BAFB00F001
:1035C0001DF84FF4FA73002200210020FDF7DFFD03
:1035D000E4E70000F8300020F43100200837000054
:1035E000000801400A4980B2086070470949C0B22A
:1035F00008607047084980B20860704704484AF67E
:10360000AA210160704702484CF6CC410160704726
:1036100000300040043000400830004010B5084938
:1036200079441C31074C7C441A34A14206D0081D51
:103630000A68511888470146A142F8D110BD00BF61
:10364000080000001400000097EDFFFFC4350000E3
:10365000000000200000000000F009F8002801D060
:10366000FFF7DCFF0020FFF761FF00F002F8012008
:10367000704700F001B81C000746384600F002F819
:10368000FBE7140080B5C046C046024A110018206E
:10369000ABBEFBE72600020075432F4F532D49496F
:1036A0002049646C6500000075432F4F532D494934
:1036B000205374617400000075432F4F532D494906
:1036C00020546D720000000000000000010203049D
:1036D00001020304060708094F532D546D724C6F05
:1036E000636B00004F532D546D72536967000000E7
:1036F000FEE7FEE7FEE7FEE7FEE7FEE7C046C04660
:10370000C046C046FFF7A8FF537461727400000002
:1037100078563412020406080200050010001F004B
:1037200001000100050010002400B40001000400A5
:103730000100040018000400010004000100010061
:103740000100800001001200100001008000010053
:10375000010020005C00E80301001E011A0E0000B9
:04000005000036FDC4
:00000001FF
